{
  "address": "0x5FbDB2315678afecb367f032d93F642f64180aa3",
  "abi": [
    {
      "inputs": [
        {
          "internalType": "uint256",
          "name": "_gameBlockStartTime",
          "type": "uint256"
        },
        {
          "internalType": "uint256",
          "name": "_gameBlockEndTime",
          "type": "uint256"
        },
        {
          "internalType": "address[]",
          "name": "_holy",
          "type": "address[]"
        },
        {
          "internalType": "address[]",
          "name": "_infected",
          "type": "address[]"
        }
      ],
      "stateMutability": "nonpayable",
      "type": "constructor"
    },
    {
      "anonymous": false,
      "inputs": [
        {
          "indexed": true,
          "internalType": "address",
          "name": "account",
          "type": "address"
        },
        {
          "indexed": true,
          "internalType": "address",
          "name": "operator",
          "type": "address"
        },
        {
          "indexed": false,
          "internalType": "bool",
          "name": "approved",
          "type": "bool"
        }
      ],
      "name": "ApprovalForAll",
      "type": "event"
    },
    {
      "anonymous": false,
      "inputs": [
        {
          "indexed": true,
          "internalType": "address",
          "name": "previousOwner",
          "type": "address"
        },
        {
          "indexed": true,
          "internalType": "address",
          "name": "newOwner",
          "type": "address"
        }
      ],
      "name": "OwnershipTransferred",
      "type": "event"
    },
    {
      "anonymous": false,
      "inputs": [
        {
          "indexed": true,
          "internalType": "address",
          "name": "operator",
          "type": "address"
        },
        {
          "indexed": true,
          "internalType": "address",
          "name": "from",
          "type": "address"
        },
        {
          "indexed": true,
          "internalType": "address",
          "name": "to",
          "type": "address"
        },
        {
          "indexed": false,
          "internalType": "uint256[]",
          "name": "ids",
          "type": "uint256[]"
        },
        {
          "indexed": false,
          "internalType": "uint256[]",
          "name": "values",
          "type": "uint256[]"
        }
      ],
      "name": "TransferBatch",
      "type": "event"
    },
    {
      "anonymous": false,
      "inputs": [
        {
          "indexed": true,
          "internalType": "address",
          "name": "operator",
          "type": "address"
        },
        {
          "indexed": true,
          "internalType": "address",
          "name": "from",
          "type": "address"
        },
        {
          "indexed": true,
          "internalType": "address",
          "name": "to",
          "type": "address"
        },
        {
          "indexed": false,
          "internalType": "uint256",
          "name": "id",
          "type": "uint256"
        },
        {
          "indexed": false,
          "internalType": "uint256",
          "name": "value",
          "type": "uint256"
        }
      ],
      "name": "TransferSingle",
      "type": "event"
    },
    {
      "anonymous": false,
      "inputs": [
        {
          "indexed": false,
          "internalType": "string",
          "name": "value",
          "type": "string"
        },
        {
          "indexed": true,
          "internalType": "uint256",
          "name": "id",
          "type": "uint256"
        }
      ],
      "name": "URI",
      "type": "event"
    },
    {
      "inputs": [],
      "name": "HOLY",
      "outputs": [
        {
          "internalType": "uint256",
          "name": "",
          "type": "uint256"
        }
      ],
      "stateMutability": "view",
      "type": "function"
    },
    {
      "inputs": [],
      "name": "INFECTED",
      "outputs": [
        {
          "internalType": "uint256",
          "name": "",
          "type": "uint256"
        }
      ],
      "stateMutability": "view",
      "type": "function"
    },
    {
      "inputs": [],
      "name": "NUMBER_OF_FAILED_ATTACKS_ALLOWED",
      "outputs": [
        {
          "internalType": "uint256",
          "name": "",
          "type": "uint256"
        }
      ],
      "stateMutability": "view",
      "type": "function"
    },
    {
      "inputs": [
        {
          "internalType": "address",
          "name": "account",
          "type": "address"
        },
        {
          "internalType": "uint256",
          "name": "id",
          "type": "uint256"
        }
      ],
      "name": "balanceOf",
      "outputs": [
        {
          "internalType": "uint256",
          "name": "",
          "type": "uint256"
        }
      ],
      "stateMutability": "view",
      "type": "function"
    },
    {
      "inputs": [
        {
          "internalType": "address[]",
          "name": "accounts",
          "type": "address[]"
        },
        {
          "internalType": "uint256[]",
          "name": "ids",
          "type": "uint256[]"
        }
      ],
      "name": "balanceOfBatch",
      "outputs": [
        {
          "internalType": "uint256[]",
          "name": "",
          "type": "uint256[]"
        }
      ],
      "stateMutability": "view",
      "type": "function"
    },
    {
      "inputs": [],
      "name": "description",
      "outputs": [
        {
          "internalType": "string",
          "name": "",
          "type": "string"
        }
      ],
      "stateMutability": "pure",
      "type": "function"
    },
    {
      "inputs": [],
      "name": "gameBlockEndTime",
      "outputs": [
        {
          "internalType": "uint256",
          "name": "",
          "type": "uint256"
        }
      ],
      "stateMutability": "view",
      "type": "function"
    },
    {
      "inputs": [],
      "name": "gameBlockStartTime",
      "outputs": [
        {
          "internalType": "uint256",
          "name": "",
          "type": "uint256"
        }
      ],
      "stateMutability": "view",
      "type": "function"
    },
    {
      "inputs": [
        {
          "internalType": "address",
          "name": "victim",
          "type": "address"
        }
      ],
      "name": "infect",
      "outputs": [
        {
          "internalType": "bool",
          "name": "",
          "type": "bool"
        }
      ],
      "stateMutability": "nonpayable",
      "type": "function"
    },
    {
      "inputs": [
        {
          "internalType": "address",
          "name": "account",
          "type": "address"
        },
        {
          "internalType": "address",
          "name": "operator",
          "type": "address"
        }
      ],
      "name": "isApprovedForAll",
      "outputs": [
        {
          "internalType": "bool",
          "name": "",
          "type": "bool"
        }
      ],
      "stateMutability": "view",
      "type": "function"
    },
    {
      "inputs": [],
      "name": "owner",
      "outputs": [
        {
          "internalType": "address",
          "name": "",
          "type": "address"
        }
      ],
      "stateMutability": "view",
      "type": "function"
    },
    {
      "inputs": [],
      "name": "renounceOwnership",
      "outputs": [],
      "stateMutability": "nonpayable",
      "type": "function"
    },
    {
      "inputs": [
        {
          "internalType": "address",
          "name": "from",
          "type": "address"
        },
        {
          "internalType": "address",
          "name": "to",
          "type": "address"
        },
        {
          "internalType": "uint256[]",
          "name": "ids",
          "type": "uint256[]"
        },
        {
          "internalType": "uint256[]",
          "name": "amounts",
          "type": "uint256[]"
        },
        {
          "internalType": "bytes",
          "name": "data",
          "type": "bytes"
        }
      ],
      "name": "safeBatchTransferFrom",
      "outputs": [],
      "stateMutability": "nonpayable",
      "type": "function"
    },
    {
      "inputs": [
        {
          "internalType": "address",
          "name": "from",
          "type": "address"
        },
        {
          "internalType": "address",
          "name": "to",
          "type": "address"
        },
        {
          "internalType": "uint256",
          "name": "id",
          "type": "uint256"
        },
        {
          "internalType": "uint256",
          "name": "amount",
          "type": "uint256"
        },
        {
          "internalType": "bytes",
          "name": "data",
          "type": "bytes"
        }
      ],
      "name": "safeTransferFrom",
      "outputs": [],
      "stateMutability": "nonpayable",
      "type": "function"
    },
    {
      "inputs": [
        {
          "internalType": "address",
          "name": "operator",
          "type": "address"
        },
        {
          "internalType": "bool",
          "name": "approved",
          "type": "bool"
        }
      ],
      "name": "setApprovalForAll",
      "outputs": [],
      "stateMutability": "nonpayable",
      "type": "function"
    },
    {
      "inputs": [
        {
          "internalType": "bytes4",
          "name": "interfaceId",
          "type": "bytes4"
        }
      ],
      "name": "supportsInterface",
      "outputs": [
        {
          "internalType": "bool",
          "name": "",
          "type": "bool"
        }
      ],
      "stateMutability": "view",
      "type": "function"
    },
    {
      "inputs": [
        {
          "internalType": "address",
          "name": "newOwner",
          "type": "address"
        }
      ],
      "name": "transferOwnership",
      "outputs": [],
      "stateMutability": "nonpayable",
      "type": "function"
    },
    {
      "inputs": [
        {
          "internalType": "uint256",
          "name": "",
          "type": "uint256"
        }
      ],
      "name": "uri",
      "outputs": [
        {
          "internalType": "string",
          "name": "",
          "type": "string"
        }
      ],
      "stateMutability": "view",
      "type": "function"
    }
  ],
  "transactionHash": "0xba9d8f70e74fee38c00f0d4c472a6b4b4cb9395222e06383f6a9a1d8222d958b",
  "args": [
    0,
    9999999999999,
    [
      "0x9F8eFFb43F519583CBA66452c5C2c506D9Eb483d",
      "0x881D40237659C251811CEC9c364ef91dC08D300C"
    ],
    [
      "0x790681392cA048891507Dbec8A6025f4Bc75fB67",
      "0x51bfeaCbdbcCD703F1a9C7C96C06b9Cb8357358D"
    ]
  ],
  "solcInputHash": "cae1bfc508ecbe8addf33876044f20d3",
  "bytecode": "0x60806040523480156200001157600080fd5b50604051620024d0380380620024d0833981016040819052620000349162000910565b60408051808201909152600d81526c494e4645435445442047414d4560981b6020820152620000638162000190565b506200006f33620001a9565b6005849055600683905581516040805160208101909152600080825262000098923392620001fb565b620000bd336001835160405180602001604052806000815250620001fb60201b60201c565b60005b825181101562000121576200010c33848381518110620000e457620000e46200098e565b602002602001015160006001604051806020016040528060008152506200030a60201b60201c565b806200011881620009ba565b915050620000c0565b5060005b8151811015620001855762000170338383815181106200014957620001496200098e565b6020026020010151600180604051806020016040528060008152506200030a60201b60201c565b806200017c81620009ba565b91505062000125565b505050505062000bbb565b8051620001a590600290602084019062000785565b5050565b600380546001600160a01b038381166001600160a01b0319831681179093556040519116919082907f8be0079c531659141344cd1fd0a4f28419497f9722a3daafe3b4186f6b6457e090600090a35050565b6001600160a01b038416620002615760405162461bcd60e51b815260206004820152602160248201527f455243313135353a206d696e7420746f20746865207a65726f206164647265736044820152607360f81b60648201526084015b60405180910390fd5b3362000287816000876200027588620003b4565b6200028088620003b4565b5050505050565b6000848152602081815260408083206001600160a01b038916845290915281208054859290620002b9908490620009d8565b909155505060408051858152602081018590526001600160a01b038088169260009291851691600080516020620024b0833981519152910160405180910390a462000280816000878787876200040a565b6001600160a01b0385163314806200034557506001600160a01b038516600090815260016020908152604080832033845290915290205460ff165b620003a55760405162461bcd60e51b815260206004820152602960248201527f455243313135353a2063616c6c6572206973206e6f74206f776e6572206e6f7260448201526808185c1c1c9bdd995960ba1b606482015260840162000258565b620002808585858585620005f0565b60408051600180825281830190925260609160009190602080830190803683370190505090508281600081518110620003f157620003f16200098e565b602090810291909101015292915050565b505050505050565b62000429846001600160a01b03166200077f60201b620009431760201c565b15620004025760405163f23a6e6160e01b81526001600160a01b0385169063f23a6e619062000465908990899088908890889060040162000a43565b602060405180830381600087803b1580156200048057600080fd5b505af1925050508015620004b3575060408051601f3d908101601f19168201909252620004b09181019062000a8a565b60015b6200057457620004c262000abd565b806308c379a01415620005035750620004da62000ada565b80620004e7575062000505565b8060405162461bcd60e51b815260040162000258919062000b69565b505b60405162461bcd60e51b815260206004820152603460248201527f455243313135353a207472616e7366657220746f206e6f6e204552433131353560448201527f526563656976657220696d706c656d656e746572000000000000000000000000606482015260840162000258565b6001600160e01b0319811663f23a6e6160e01b14620005e75760405162461bcd60e51b815260206004820152602860248201527f455243313135353a204552433131353552656365697665722072656a656374656044820152676420746f6b656e7360c01b606482015260840162000258565b50505050505050565b6001600160a01b038416620006565760405162461bcd60e51b815260206004820152602560248201527f455243313135353a207472616e7366657220746f20746865207a65726f206164604482015264647265737360d81b606482015260840162000258565b33620006698187876200027588620003b4565b6000848152602081815260408083206001600160a01b038a16845290915290205483811015620006ef5760405162461bcd60e51b815260206004820152602a60248201527f455243313135353a20696e73756666696369656e742062616c616e636520666f60448201526939103a3930b739b332b960b11b606482015260840162000258565b6000858152602081815260408083206001600160a01b038b81168552925280832087850390559088168252812080548692906200072e908490620009d8565b909155505060408051868152602081018690526001600160a01b03808916928a82169291861691600080516020620024b0833981519152910160405180910390a4620005e78288888888886200040a565b3b151590565b828054620007939062000b7e565b90600052602060002090601f016020900481019282620007b7576000855562000802565b82601f10620007d257805160ff191683800117855562000802565b8280016001018555821562000802579182015b8281111562000802578251825591602001919060010190620007e5565b506200081092915062000814565b5090565b5b8082111562000810576000815560010162000815565b634e487b7160e01b600052604160045260246000fd5b601f8201601f191681016001600160401b03811182821017156200086957620008696200082b565b6040525050565b600082601f8301126200088257600080fd5b815160206001600160401b03821115620008a057620008a06200082b565b8160051b604051620008b58383018262000841565b92835284810182019282810187851115620008cf57600080fd5b83870192505b84831015620009055782516001600160a01b0381168114620008f75760008081fd5b8152918301918301620008d5565b509695505050505050565b600080600080608085870312156200092757600080fd5b84516020860151604087015191955093506001600160401b03808211156200094e57600080fd5b6200095c8883890162000870565b935060608701519150808211156200097357600080fd5b50620009828782880162000870565b91505092959194509250565b634e487b7160e01b600052603260045260246000fd5b634e487b7160e01b600052601160045260246000fd5b6000600019821415620009d157620009d1620009a4565b5060010190565b60008219821115620009ee57620009ee620009a4565b500190565b6000815180845260005b8181101562000a1b57602081850181015186830182015201620009fd565b8181111562000a2e576000602083870101525b50601f01601f19169290920160200192915050565b6001600160a01b03868116825285166020820152604081018490526060810183905260a06080820181905260009062000a7f90830184620009f3565b979650505050505050565b60006020828403121562000a9d57600080fd5b81516001600160e01b03198116811462000ab657600080fd5b9392505050565b600060033d111562000ad75760046000803e5060005160e01c5b90565b600060443d101562000ae95790565b6040516003193d81016004833e81513d6001600160401b03808311602484018310171562000b1957505050505090565b828501915081518181111562000b325750505050505090565b843d870101602082850101111562000b4d5750505050505090565b62000b5e6020828601018762000841565b509095945050505050565b60208152600062000ab66020830184620009f3565b600181811c9082168062000b9357607f821691505b6020821081141562000bb557634e487b7160e01b600052602260045260246000fd5b50919050565b6118e58062000bcb6000396000f3fe608060405234801561001057600080fd5b50600436106101155760003560e01c80638da5cb5b116100a2578063cb7381a611610071578063cb7381a61461023d578063e43ebf0314610246578063e985e9c51461024e578063f242432a1461028a578063f2fde38b1461029d57600080fd5b80638da5cb5b146101f457806396eb64a91461020f578063a22cb46514610222578063af75231e1461023557600080fd5b80632eb2c2d6116100e95780632eb2c2d61461018b5780634e1273f4146101a05780635a360c56146101c0578063715018a6146101c95780637284e416146101d157600080fd5b8062fdd58e1461011a57806301ffc9a714610140578063023e4bb2146101635780630e89341c1461016b575b600080fd5b61012d6101283660046110af565b6102b0565b6040519081526020015b60405180910390f35b61015361014e3660046110ef565b610347565b6040519015158152602001610137565b61012d600581565b61017e610179366004611113565b610399565b6040516101379190611179565b61019e6101993660046112d8565b61042d565b005b6101b36101ae366004611382565b6104c4565b6040516101379190611488565b61012d60065481565b61019e6105ee565b60408051808201909152600781526674657374696e6760c81b602082015261017e565b6003546040516001600160a01b039091168152602001610137565b61015361021d36600461149b565b610654565b61019e6102303660046114b6565b61071a565b61012d600181565b61012d60055481565b61012d600081565b61015361025c3660046114f2565b6001600160a01b03918216600090815260016020908152604080832093909416825291909152205460ff1690565b61019e610298366004611525565b6107f1565b61019e6102ab36600461149b565b610878565b60006001600160a01b0383166103215760405162461bcd60e51b815260206004820152602b60248201527f455243313135353a2062616c616e636520717565727920666f7220746865207a60448201526a65726f206164647265737360a81b60648201526084015b60405180910390fd5b506000908152602081815260408083206001600160a01b03949094168352929052205490565b60006001600160e01b03198216636cdb3d1360e11b148061037857506001600160e01b031982166303a24d0760e21b145b8061039357506301ffc9a760e01b6001600160e01b03198316145b92915050565b6060600280546103a89061158a565b80601f01602080910402602001604051908101604052809291908181526020018280546103d49061158a565b80156104215780601f106103f657610100808354040283529160200191610421565b820191906000526020600020905b81548152906001019060200180831161040457829003601f168201915b50505050509050919050565b6001600160a01b0385163314806104495750610449853361025c565b6104b05760405162461bcd60e51b815260206004820152603260248201527f455243313135353a207472616e736665722063616c6c6572206973206e6f74206044820152711bdddb995c881b9bdc88185c1c1c9bdd995960721b6064820152608401610318565b6104bd8585858585610949565b5050505050565b606081518351146105295760405162461bcd60e51b815260206004820152602960248201527f455243313135353a206163636f756e747320616e6420696473206c656e677468604482015268040dad2e6dac2e8c6d60bb1b6064820152608401610318565b6000835167ffffffffffffffff8111156105455761054561118c565b60405190808252806020026020018201604052801561056e578160200160208202803683370190505b50905060005b84518110156105e6576105b9858281518110610592576105926115c5565b60200260200101518583815181106105ac576105ac6115c5565b60200260200101516102b0565b8282815181106105cb576105cb6115c5565b60209081029190910101526105df816115f1565b9050610574565b509392505050565b6003546001600160a01b031633146106485760405162461bcd60e51b815260206004820181905260248201527f4f776e61626c653a2063616c6c6572206973206e6f7420746865206f776e65726044820152606401610318565b6106526000610b26565b565b6000600554431015801561066a57506006544311155b61067357600080fd5b60016106803360016102b0565b101561068b57600080fd5b60016106988360006102b0565b106106b2576106aa8260006001610b78565b506001919050565b336000908152600460205260408120805460ff16916106d08361160c565b82546101009290920a60ff81810219909316918316021790915533600090815260046020526040902054600591161090506107115761071133600180610b78565b5060005b919050565b336001600160a01b03831614156107855760405162461bcd60e51b815260206004820152602960248201527f455243313135353a2073657474696e6720617070726f76616c20737461747573604482015268103337b91039b2b63360b91b6064820152608401610318565b3360008181526001602090815260408083206001600160a01b03871680855290835292819020805460ff191686151590811790915590519081529192917f17307eab39ab6107e8899845ad3d59bd9653f200f220920489ca2b5937696c31910160405180910390a35050565b6001600160a01b03851633148061080d575061080d853361025c565b61086b5760405162461bcd60e51b815260206004820152602960248201527f455243313135353a2063616c6c6572206973206e6f74206f776e6572206e6f7260448201526808185c1c1c9bdd995960ba1b6064820152608401610318565b6104bd8585858585610cf2565b6003546001600160a01b031633146108d25760405162461bcd60e51b815260206004820181905260248201527f4f776e61626c653a2063616c6c6572206973206e6f7420746865206f776e65726044820152606401610318565b6001600160a01b0381166109375760405162461bcd60e51b815260206004820152602660248201527f4f776e61626c653a206e6577206f776e657220697320746865207a65726f206160448201526564647265737360d01b6064820152608401610318565b61094081610b26565b50565b3b151590565b81518351146109ab5760405162461bcd60e51b815260206004820152602860248201527f455243313135353a2069647320616e6420616d6f756e7473206c656e677468206044820152670dad2e6dac2e8c6d60c31b6064820152608401610318565b6001600160a01b0384166109d15760405162461bcd60e51b81526004016103189061162c565b3360005b8451811015610ab85760008582815181106109f2576109f26115c5565b602002602001015190506000858381518110610a1057610a106115c5565b602090810291909101810151600084815280835260408082206001600160a01b038e168352909352919091205490915081811015610a605760405162461bcd60e51b815260040161031890611671565b6000838152602081815260408083206001600160a01b038e8116855292528083208585039055908b16825281208054849290610a9d9084906116bb565b9250508190555050505080610ab1906115f1565b90506109d5565b50846001600160a01b0316866001600160a01b0316826001600160a01b03167f4a39dc06d4c0dbc64b70af90fd698a233a518aa5d07e595d983b8c0526c8f7fb8787604051610b089291906116d3565b60405180910390a4610b1e818787878787610e18565b505050505050565b600380546001600160a01b038381166001600160a01b0319831681179093556040519116919082907f8be0079c531659141344cd1fd0a4f28419497f9722a3daafe3b4186f6b6457e090600090a35050565b6001600160a01b038316610bda5760405162461bcd60e51b815260206004820152602360248201527f455243313135353a206275726e2066726f6d20746865207a65726f206164647260448201526265737360e81b6064820152608401610318565b33610c0a81856000610beb87610f83565b610bf487610f83565b5050604080516020810190915260009052505050565b6000838152602081815260408083206001600160a01b038816845290915290205482811015610c875760405162461bcd60e51b8152602060048201526024808201527f455243313135353a206275726e20616d6f756e7420657863656564732062616c604482015263616e636560e01b6064820152608401610318565b6000848152602081815260408083206001600160a01b03898116808652918452828520888703905582518981529384018890529092908616917fc3d58168c5ae7397731d063d5bbf3d657854427343f4c083240f7aacaa2d0f62910160405180910390a45050505050565b6001600160a01b038416610d185760405162461bcd60e51b81526004016103189061162c565b33610d31818787610d2888610f83565b6104bd88610f83565b6000848152602081815260408083206001600160a01b038a16845290915290205483811015610d725760405162461bcd60e51b815260040161031890611671565b6000858152602081815260408083206001600160a01b038b8116855292528083208785039055908816825281208054869290610daf9084906116bb565b909155505060408051868152602081018690526001600160a01b03808916928a821692918616917fc3d58168c5ae7397731d063d5bbf3d657854427343f4c083240f7aacaa2d0f62910160405180910390a4610e0f828888888888610fce565b50505050505050565b6001600160a01b0384163b15610b1e5760405163bc197c8160e01b81526001600160a01b0385169063bc197c8190610e5c9089908990889088908890600401611701565b602060405180830381600087803b158015610e7657600080fd5b505af1925050508015610ea6575060408051601f3d908101601f19168201909252610ea39181019061175f565b60015b610f5357610eb261177c565b806308c379a01415610eec5750610ec7611798565b80610ed25750610eee565b8060405162461bcd60e51b81526004016103189190611179565b505b60405162461bcd60e51b815260206004820152603460248201527f455243313135353a207472616e7366657220746f206e6f6e20455243313135356044820152732932b1b2b4bb32b91034b6b83632b6b2b73a32b960611b6064820152608401610318565b6001600160e01b0319811663bc197c8160e01b14610e0f5760405162461bcd60e51b815260040161031890611822565b60408051600180825281830190925260609160009190602080830190803683370190505090508281600081518110610fbd57610fbd6115c5565b602090810291909101015292915050565b6001600160a01b0384163b15610b1e5760405163f23a6e6160e01b81526001600160a01b0385169063f23a6e6190611012908990899088908890889060040161186a565b602060405180830381600087803b15801561102c57600080fd5b505af192505050801561105c575060408051601f3d908101601f191682019092526110599181019061175f565b60015b61106857610eb261177c565b6001600160e01b0319811663f23a6e6160e01b14610e0f5760405162461bcd60e51b815260040161031890611822565b80356001600160a01b038116811461071557600080fd5b600080604083850312156110c257600080fd5b6110cb83611098565b946020939093013593505050565b6001600160e01b03198116811461094057600080fd5b60006020828403121561110157600080fd5b813561110c816110d9565b9392505050565b60006020828403121561112557600080fd5b5035919050565b6000815180845260005b8181101561115257602081850181015186830182015201611136565b81811115611164576000602083870101525b50601f01601f19169290920160200192915050565b60208152600061110c602083018461112c565b634e487b7160e01b600052604160045260246000fd5b601f8201601f1916810167ffffffffffffffff811182821017156111c8576111c861118c565b6040525050565b600067ffffffffffffffff8211156111e9576111e961118c565b5060051b60200190565b600082601f83011261120457600080fd5b81356020611211826111cf565b60405161121e82826111a2565b83815260059390931b850182019282810191508684111561123e57600080fd5b8286015b848110156112595780358352918301918301611242565b509695505050505050565b600082601f83011261127557600080fd5b813567ffffffffffffffff81111561128f5761128f61118c565b6040516112a6601f8301601f1916602001826111a2565b8181528460208386010111156112bb57600080fd5b816020850160208301376000918101602001919091529392505050565b600080600080600060a086880312156112f057600080fd5b6112f986611098565b945061130760208701611098565b9350604086013567ffffffffffffffff8082111561132457600080fd5b61133089838a016111f3565b9450606088013591508082111561134657600080fd5b61135289838a016111f3565b9350608088013591508082111561136857600080fd5b5061137588828901611264565b9150509295509295909350565b6000806040838503121561139557600080fd5b823567ffffffffffffffff808211156113ad57600080fd5b818501915085601f8301126113c157600080fd5b813560206113ce826111cf565b6040516113db82826111a2565b83815260059390931b85018201928281019150898411156113fb57600080fd5b948201945b838610156114205761141186611098565b82529482019490820190611400565b9650508601359250508082111561143657600080fd5b50611443858286016111f3565b9150509250929050565b600081518084526020808501945080840160005b8381101561147d57815187529582019590820190600101611461565b509495945050505050565b60208152600061110c602083018461144d565b6000602082840312156114ad57600080fd5b61110c82611098565b600080604083850312156114c957600080fd5b6114d283611098565b9150602083013580151581146114e757600080fd5b809150509250929050565b6000806040838503121561150557600080fd5b61150e83611098565b915061151c60208401611098565b90509250929050565b600080600080600060a0868803121561153d57600080fd5b61154686611098565b945061155460208701611098565b93506040860135925060608601359150608086013567ffffffffffffffff81111561157e57600080fd5b61137588828901611264565b600181811c9082168061159e57607f821691505b602082108114156115bf57634e487b7160e01b600052602260045260246000fd5b50919050565b634e487b7160e01b600052603260045260246000fd5b634e487b7160e01b600052601160045260246000fd5b6000600019821415611605576116056115db565b5060010190565b600060ff821660ff811415611623576116236115db565b60010192915050565b60208082526025908201527f455243313135353a207472616e7366657220746f20746865207a65726f206164604082015264647265737360d81b606082015260800190565b6020808252602a908201527f455243313135353a20696e73756666696369656e742062616c616e636520666f60408201526939103a3930b739b332b960b11b606082015260800190565b600082198211156116ce576116ce6115db565b500190565b6040815260006116e6604083018561144d565b82810360208401526116f8818561144d565b95945050505050565b6001600160a01b0386811682528516602082015260a06040820181905260009061172d9083018661144d565b828103606084015261173f818661144d565b90508281036080840152611753818561112c565b98975050505050505050565b60006020828403121561177157600080fd5b815161110c816110d9565b600060033d11156117955760046000803e5060005160e01c5b90565b600060443d10156117a65790565b6040516003193d81016004833e81513d67ffffffffffffffff81602484011181841117156117d657505050505090565b82850191508151818111156117ee5750505050505090565b843d87010160208285010111156118085750505050505090565b611817602082860101876111a2565b509095945050505050565b60208082526028908201527f455243313135353a204552433131353552656365697665722072656a656374656040820152676420746f6b656e7360c01b606082015260800190565b6001600160a01b03868116825285166020820152604081018490526060810183905260a0608082018190526000906118a49083018461112c565b97965050505050505056fea26469706673582212205ee4595a363dacff8521357c4dab29bd788280da150a5e734515498d695cf7f264736f6c63430008090033c3d58168c5ae7397731d063d5bbf3d657854427343f4c083240f7aacaa2d0f62",
  "devdoc": {
    "kind": "dev",
    "methods": {
      "balanceOf(address,uint256)": {
        "details": "See {IERC1155-balanceOf}. Requirements: - `account` cannot be the zero address."
      },
      "balanceOfBatch(address[],uint256[])": {
        "details": "See {IERC1155-balanceOfBatch}. Requirements: - `accounts` and `ids` must have the same length."
      },
      "isApprovedForAll(address,address)": {
        "details": "See {IERC1155-isApprovedForAll}."
      },
      "owner()": {
        "details": "Returns the address of the current owner."
      },
      "renounceOwnership()": {
        "details": "Leaves the contract without owner. It will not be possible to call `onlyOwner` functions anymore. Can only be called by the current owner. NOTE: Renouncing ownership will leave the contract without an owner, thereby removing any functionality that is only available to the owner."
      },
      "safeBatchTransferFrom(address,address,uint256[],uint256[],bytes)": {
        "details": "See {IERC1155-safeBatchTransferFrom}."
      },
      "safeTransferFrom(address,address,uint256,uint256,bytes)": {
        "details": "See {IERC1155-safeTransferFrom}."
      },
      "setApprovalForAll(address,bool)": {
        "details": "See {IERC1155-setApprovalForAll}."
      },
      "supportsInterface(bytes4)": {
        "details": "See {IERC165-supportsInterface}."
      },
      "transferOwnership(address)": {
        "details": "Transfers ownership of the contract to a new account (`newOwner`). Can only be called by the current owner."
      },
      "uri(uint256)": {
        "details": "See {IERC1155MetadataURI-uri}. This implementation returns the same URI for *all* token types. It relies on the token type ID substitution mechanism https://eips.ethereum.org/EIPS/eip-1155#metadata[defined in the EIP]. Clients calling this function must replace the `\\{id\\}` substring with the actual token type ID."
      }
    },
    "version": 1
  },
  "userdoc": {
    "kind": "user",
    "methods": {},
    "version": 1
  },
  "storageLayout": {
    "storage": [
      {
        "astId": 129,
        "contract": "contracts/Infected.sol:Infected",
        "label": "_balances",
        "offset": 0,
        "slot": "0",
        "type": "t_mapping(t_uint256,t_mapping(t_address,t_uint256))"
      },
      {
        "astId": 135,
        "contract": "contracts/Infected.sol:Infected",
        "label": "_operatorApprovals",
        "offset": 0,
        "slot": "1",
        "type": "t_mapping(t_address,t_mapping(t_address,t_bool))"
      },
      {
        "astId": 137,
        "contract": "contracts/Infected.sol:Infected",
        "label": "_uri",
        "offset": 0,
        "slot": "2",
        "type": "t_string_storage"
      },
      {
        "astId": 7,
        "contract": "contracts/Infected.sol:Infected",
        "label": "_owner",
        "offset": 0,
        "slot": "3",
        "type": "t_address"
      },
      {
        "astId": 1741,
        "contract": "contracts/Infected.sol:Infected",
        "label": "failedKillCount",
        "offset": 0,
        "slot": "4",
        "type": "t_mapping(t_address,t_uint8)"
      },
      {
        "astId": 1743,
        "contract": "contracts/Infected.sol:Infected",
        "label": "gameBlockStartTime",
        "offset": 0,
        "slot": "5",
        "type": "t_uint256"
      },
      {
        "astId": 1745,
        "contract": "contracts/Infected.sol:Infected",
        "label": "gameBlockEndTime",
        "offset": 0,
        "slot": "6",
        "type": "t_uint256"
      }
    ],
    "types": {
      "t_address": {
        "encoding": "inplace",
        "label": "address",
        "numberOfBytes": "20"
      },
      "t_bool": {
        "encoding": "inplace",
        "label": "bool",
        "numberOfBytes": "1"
      },
      "t_mapping(t_address,t_bool)": {
        "encoding": "mapping",
        "key": "t_address",
        "label": "mapping(address => bool)",
        "numberOfBytes": "32",
        "value": "t_bool"
      },
      "t_mapping(t_address,t_mapping(t_address,t_bool))": {
        "encoding": "mapping",
        "key": "t_address",
        "label": "mapping(address => mapping(address => bool))",
        "numberOfBytes": "32",
        "value": "t_mapping(t_address,t_bool)"
      },
      "t_mapping(t_address,t_uint256)": {
        "encoding": "mapping",
        "key": "t_address",
        "label": "mapping(address => uint256)",
        "numberOfBytes": "32",
        "value": "t_uint256"
      },
      "t_mapping(t_address,t_uint8)": {
        "encoding": "mapping",
        "key": "t_address",
        "label": "mapping(address => uint8)",
        "numberOfBytes": "32",
        "value": "t_uint8"
      },
      "t_mapping(t_uint256,t_mapping(t_address,t_uint256))": {
        "encoding": "mapping",
        "key": "t_uint256",
        "label": "mapping(uint256 => mapping(address => uint256))",
        "numberOfBytes": "32",
        "value": "t_mapping(t_address,t_uint256)"
      },
      "t_string_storage": {
        "encoding": "bytes",
        "label": "string",
        "numberOfBytes": "32"
      },
      "t_uint256": {
        "encoding": "inplace",
        "label": "uint256",
        "numberOfBytes": "32"
      },
      "t_uint8": {
        "encoding": "inplace",
        "label": "uint8",
        "numberOfBytes": "1"
      }
    }
  }
}