{
  "address": "0x5FbDB2315678afecb367f032d93F642f64180aa3",
  "abi": [
    {
      "inputs": [],
      "name": "description",
      "outputs": [
        {
          "internalType": "string",
          "name": "",
          "type": "string"
        }
      ],
      "stateMutability": "pure",
      "type": "function"
    }
  ],
  "transactionHash": "0x1054b481bbabef762281d3af7610a2d1770e52912d7338b2352f2f30ca5aea42",
  "args": [],
  "solcInputHash": "e097bb05153295b104a447f922368e74",
  "bytecode": "0x608060405234801561001057600080fd5b5060e58061001f6000396000f3fe6080604052348015600f57600080fd5b506004361060285760003560e01c80637284e41614602d575b600080fd5b604080518082018252600781526674657374696e6760c81b6020820152905160549190605d565b60405180910390f35b600060208083528351808285015260005b81811015608857858101830151858201604001528201606e565b818111156099576000604083870101525b50601f01601f191692909201604001939250505056fea2646970667358221220d87e4aabd9f76f6d84ca94eb7389cfca51c4a0e4bb062b3483ea80d97605d1b864736f6c63430008090033",
  "devdoc": {
    "kind": "dev",
    "methods": {},
    "version": 1
  },
  "userdoc": {
    "kind": "user",
    "methods": {},
    "version": 1
  },
  "storageLayout": {
    "storage": [],
    "types": null
  }
}