{
  "address": "0x5FbDB2315678afecb367f032d93F642f64180aa3",
  "abi": [
    {
      "inputs": [
        {
          "internalType": "uint256",
          "name": "_gameBlockStartTime",
          "type": "uint256"
        },
        {
          "internalType": "uint256",
          "name": "_gameBlockEndTime",
          "type": "uint256"
        },
        {
          "internalType": "address[]",
          "name": "_holy",
          "type": "address[]"
        },
        {
          "internalType": "address[]",
          "name": "_infected",
          "type": "address[]"
        }
      ],
      "stateMutability": "nonpayable",
      "type": "constructor"
    },
    {
      "anonymous": false,
      "inputs": [
        {
          "indexed": true,
          "internalType": "address",
          "name": "account",
          "type": "address"
        },
        {
          "indexed": true,
          "internalType": "address",
          "name": "operator",
          "type": "address"
        },
        {
          "indexed": false,
          "internalType": "bool",
          "name": "approved",
          "type": "bool"
        }
      ],
      "name": "ApprovalForAll",
      "type": "event"
    },
    {
      "anonymous": false,
      "inputs": [
        {
          "indexed": true,
          "internalType": "address",
          "name": "previousOwner",
          "type": "address"
        },
        {
          "indexed": true,
          "internalType": "address",
          "name": "newOwner",
          "type": "address"
        }
      ],
      "name": "OwnershipTransferred",
      "type": "event"
    },
    {
      "anonymous": false,
      "inputs": [
        {
          "indexed": true,
          "internalType": "address",
          "name": "operator",
          "type": "address"
        },
        {
          "indexed": true,
          "internalType": "address",
          "name": "from",
          "type": "address"
        },
        {
          "indexed": true,
          "internalType": "address",
          "name": "to",
          "type": "address"
        },
        {
          "indexed": false,
          "internalType": "uint256[]",
          "name": "ids",
          "type": "uint256[]"
        },
        {
          "indexed": false,
          "internalType": "uint256[]",
          "name": "values",
          "type": "uint256[]"
        }
      ],
      "name": "TransferBatch",
      "type": "event"
    },
    {
      "anonymous": false,
      "inputs": [
        {
          "indexed": true,
          "internalType": "address",
          "name": "operator",
          "type": "address"
        },
        {
          "indexed": true,
          "internalType": "address",
          "name": "from",
          "type": "address"
        },
        {
          "indexed": true,
          "internalType": "address",
          "name": "to",
          "type": "address"
        },
        {
          "indexed": false,
          "internalType": "uint256",
          "name": "id",
          "type": "uint256"
        },
        {
          "indexed": false,
          "internalType": "uint256",
          "name": "value",
          "type": "uint256"
        }
      ],
      "name": "TransferSingle",
      "type": "event"
    },
    {
      "anonymous": false,
      "inputs": [
        {
          "indexed": false,
          "internalType": "string",
          "name": "value",
          "type": "string"
        },
        {
          "indexed": true,
          "internalType": "uint256",
          "name": "id",
          "type": "uint256"
        }
      ],
      "name": "URI",
      "type": "event"
    },
    {
      "inputs": [],
      "name": "GetWinners",
      "outputs": [
        {
          "internalType": "address[]",
          "name": "",
          "type": "address[]"
        }
      ],
      "stateMutability": "view",
      "type": "function"
    },
    {
      "inputs": [],
      "name": "HOLY",
      "outputs": [
        {
          "internalType": "uint256",
          "name": "",
          "type": "uint256"
        }
      ],
      "stateMutability": "view",
      "type": "function"
    },
    {
      "inputs": [],
      "name": "INFECTED",
      "outputs": [
        {
          "internalType": "uint256",
          "name": "",
          "type": "uint256"
        }
      ],
      "stateMutability": "view",
      "type": "function"
    },
    {
      "inputs": [],
      "name": "NUMBER_OF_FAILED_ATTACKS_ALLOWED",
      "outputs": [
        {
          "internalType": "uint256",
          "name": "",
          "type": "uint256"
        }
      ],
      "stateMutability": "view",
      "type": "function"
    },
    {
      "inputs": [
        {
          "internalType": "address",
          "name": "account",
          "type": "address"
        },
        {
          "internalType": "uint256",
          "name": "id",
          "type": "uint256"
        }
      ],
      "name": "balanceOf",
      "outputs": [
        {
          "internalType": "uint256",
          "name": "",
          "type": "uint256"
        }
      ],
      "stateMutability": "view",
      "type": "function"
    },
    {
      "inputs": [
        {
          "internalType": "address[]",
          "name": "accounts",
          "type": "address[]"
        },
        {
          "internalType": "uint256[]",
          "name": "ids",
          "type": "uint256[]"
        }
      ],
      "name": "balanceOfBatch",
      "outputs": [
        {
          "internalType": "uint256[]",
          "name": "",
          "type": "uint256[]"
        }
      ],
      "stateMutability": "view",
      "type": "function"
    },
    {
      "inputs": [],
      "name": "description",
      "outputs": [
        {
          "internalType": "string",
          "name": "",
          "type": "string"
        }
      ],
      "stateMutability": "pure",
      "type": "function"
    },
    {
      "inputs": [
        {
          "internalType": "uint256",
          "name": "id",
          "type": "uint256"
        }
      ],
      "name": "exists",
      "outputs": [
        {
          "internalType": "bool",
          "name": "",
          "type": "bool"
        }
      ],
      "stateMutability": "view",
      "type": "function"
    },
    {
      "inputs": [],
      "name": "gameBlockEndTime",
      "outputs": [
        {
          "internalType": "uint256",
          "name": "",
          "type": "uint256"
        }
      ],
      "stateMutability": "view",
      "type": "function"
    },
    {
      "inputs": [],
      "name": "gameBlockStartTime",
      "outputs": [
        {
          "internalType": "uint256",
          "name": "",
          "type": "uint256"
        }
      ],
      "stateMutability": "view",
      "type": "function"
    },
    {
      "inputs": [
        {
          "internalType": "uint256",
          "name": "",
          "type": "uint256"
        }
      ],
      "name": "holyAddresses",
      "outputs": [
        {
          "internalType": "address",
          "name": "",
          "type": "address"
        }
      ],
      "stateMutability": "view",
      "type": "function"
    },
    {
      "inputs": [
        {
          "internalType": "address",
          "name": "victim",
          "type": "address"
        }
      ],
      "name": "infect",
      "outputs": [
        {
          "internalType": "bool",
          "name": "",
          "type": "bool"
        }
      ],
      "stateMutability": "nonpayable",
      "type": "function"
    },
    {
      "inputs": [
        {
          "internalType": "uint256",
          "name": "",
          "type": "uint256"
        }
      ],
      "name": "infectedAddresses",
      "outputs": [
        {
          "internalType": "address",
          "name": "",
          "type": "address"
        }
      ],
      "stateMutability": "view",
      "type": "function"
    },
    {
      "inputs": [
        {
          "internalType": "address",
          "name": "account",
          "type": "address"
        },
        {
          "internalType": "address",
          "name": "operator",
          "type": "address"
        }
      ],
      "name": "isApprovedForAll",
      "outputs": [
        {
          "internalType": "bool",
          "name": "",
          "type": "bool"
        }
      ],
      "stateMutability": "view",
      "type": "function"
    },
    {
      "inputs": [],
      "name": "owner",
      "outputs": [
        {
          "internalType": "address",
          "name": "",
          "type": "address"
        }
      ],
      "stateMutability": "view",
      "type": "function"
    },
    {
      "inputs": [],
      "name": "renounceOwnership",
      "outputs": [],
      "stateMutability": "nonpayable",
      "type": "function"
    },
    {
      "inputs": [
        {
          "internalType": "address",
          "name": "from",
          "type": "address"
        },
        {
          "internalType": "address",
          "name": "to",
          "type": "address"
        },
        {
          "internalType": "uint256[]",
          "name": "ids",
          "type": "uint256[]"
        },
        {
          "internalType": "uint256[]",
          "name": "amounts",
          "type": "uint256[]"
        },
        {
          "internalType": "bytes",
          "name": "data",
          "type": "bytes"
        }
      ],
      "name": "safeBatchTransferFrom",
      "outputs": [],
      "stateMutability": "nonpayable",
      "type": "function"
    },
    {
      "inputs": [
        {
          "internalType": "address",
          "name": "from",
          "type": "address"
        },
        {
          "internalType": "address",
          "name": "to",
          "type": "address"
        },
        {
          "internalType": "uint256",
          "name": "id",
          "type": "uint256"
        },
        {
          "internalType": "uint256",
          "name": "amount",
          "type": "uint256"
        },
        {
          "internalType": "bytes",
          "name": "data",
          "type": "bytes"
        }
      ],
      "name": "safeTransferFrom",
      "outputs": [],
      "stateMutability": "nonpayable",
      "type": "function"
    },
    {
      "inputs": [
        {
          "internalType": "address",
          "name": "operator",
          "type": "address"
        },
        {
          "internalType": "bool",
          "name": "approved",
          "type": "bool"
        }
      ],
      "name": "setApprovalForAll",
      "outputs": [],
      "stateMutability": "nonpayable",
      "type": "function"
    },
    {
      "inputs": [
        {
          "internalType": "bytes4",
          "name": "interfaceId",
          "type": "bytes4"
        }
      ],
      "name": "supportsInterface",
      "outputs": [
        {
          "internalType": "bool",
          "name": "",
          "type": "bool"
        }
      ],
      "stateMutability": "view",
      "type": "function"
    },
    {
      "inputs": [
        {
          "internalType": "uint256",
          "name": "id",
          "type": "uint256"
        }
      ],
      "name": "totalSupply",
      "outputs": [
        {
          "internalType": "uint256",
          "name": "",
          "type": "uint256"
        }
      ],
      "stateMutability": "view",
      "type": "function"
    },
    {
      "inputs": [
        {
          "internalType": "address",
          "name": "newOwner",
          "type": "address"
        }
      ],
      "name": "transferOwnership",
      "outputs": [],
      "stateMutability": "nonpayable",
      "type": "function"
    },
    {
      "inputs": [
        {
          "internalType": "uint256",
          "name": "",
          "type": "uint256"
        }
      ],
      "name": "uri",
      "outputs": [
        {
          "internalType": "string",
          "name": "",
          "type": "string"
        }
      ],
      "stateMutability": "view",
      "type": "function"
    }
  ],
  "transactionHash": "0x53d69f4cc00ba83bc15c2547101be619aa12336dd63f0af11c5aa8deeb34e51a",
  "args": [
    0,
    9999999999999,
    [
      "0x9F8eFFb43F519583CBA66452c5C2c506D9Eb483d",
      "0x881D40237659C251811CEC9c364ef91dC08D300C"
    ],
    [
      "0x790681392cA048891507Dbec8A6025f4Bc75fB67",
      "0x51bfeaCbdbcCD703F1a9C7C96C06b9Cb8357358D"
    ]
  ],
  "solcInputHash": "72889dd547da46a1fb9f2a89f8f1fa24",
  "bytecode": "0x60806040523480156200001157600080fd5b506040516200299b3803806200299b8339810160408190526200003491620009de565b60408051808201909152600d81526c494e4645435445442047414d4560981b60208201526200006381620001c2565b506200006f33620001db565b6006849055600783905581516200008e906008906020850190620007fb565b508051620000a4906009906020840190620007fb565b50620000ca3360008451604051806020016040528060008152506200022d60201b60201c565b620000ef3360018351604051806020016040528060008152506200022d60201b60201c565b60005b825181101562000153576200013e3384838151811062000116576200011662000a5c565b602002602001015160006001604051806020016040528060008152506200027160201b60201c565b806200014a8162000a88565b915050620000f2565b5060005b8151811015620001b757620001a2338383815181106200017b576200017b62000a5c565b6020026020010151600180604051806020016040528060008152506200027160201b60201c565b80620001ae8162000a88565b91505062000157565b505050505062000c89565b8051620001d790600290602084019062000865565b5050565b600480546001600160a01b038381166001600160a01b0319831681179093556040519116919082907f8be0079c531659141344cd1fd0a4f28419497f9722a3daafe3b4186f6b6457e090600090a35050565b62000246848484846200032660201b62000b871760201c565b600083815260036020526040812080548492906200026690849062000aa6565b909155505050505050565b6001600160a01b038516331480620002ac57506001600160a01b038516600090815260016020908152604080832033845290915290205460ff165b620003105760405162461bcd60e51b815260206004820152602960248201527f455243313135353a2063616c6c6572206973206e6f74206f776e6572206e6f7260448201526808185c1c1c9bdd995960ba1b60648201526084015b60405180910390fd5b6200031f85858585856200042a565b5050505050565b6001600160a01b038416620003885760405162461bcd60e51b815260206004820152602160248201527f455243313135353a206d696e7420746f20746865207a65726f206164647265736044820152607360f81b606482015260840162000307565b33620003a7816000876200039c88620005c2565b6200031f88620005c2565b6000848152602081815260408083206001600160a01b038916845290915281208054859290620003d990849062000aa6565b909155505060408051858152602081018590526001600160a01b0380881692600092918516916000805160206200297b833981519152910160405180910390a46200031f8160008787878762000618565b6001600160a01b038416620004905760405162461bcd60e51b815260206004820152602560248201527f455243313135353a207472616e7366657220746f20746865207a65726f206164604482015264647265737360d81b606482015260840162000307565b33620004a38187876200039c88620005c2565b6000848152602081815260408083206001600160a01b038a16845290915290205483811015620005295760405162461bcd60e51b815260206004820152602a60248201527f455243313135353a20696e73756666696369656e742062616c616e636520666f60448201526939103a3930b739b332b960b11b606482015260840162000307565b6000858152602081815260408083206001600160a01b038b81168552925280832087850390559088168252812080548692906200056890849062000aa6565b909155505060408051868152602081018690526001600160a01b03808916928a821692918616916000805160206200297b833981519152910160405180910390a4620005b982888888888862000618565b50505050505050565b60408051600180825281830190925260609160009190602080830190803683370190505090508281600081518110620005ff57620005ff62000a5c565b602090810291909101015292915050565b505050505050565b62000637846001600160a01b0316620007f560201b62000c911760201c565b15620006105760405163f23a6e6160e01b81526001600160a01b0385169063f23a6e619062000673908990899088908890889060040162000b11565b602060405180830381600087803b1580156200068e57600080fd5b505af1925050508015620006c1575060408051601f3d908101601f19168201909252620006be9181019062000b58565b60015b6200078257620006d062000b8b565b806308c379a01415620007115750620006e862000ba8565b80620006f5575062000713565b8060405162461bcd60e51b815260040162000307919062000c37565b505b60405162461bcd60e51b815260206004820152603460248201527f455243313135353a207472616e7366657220746f206e6f6e204552433131353560448201527f526563656976657220696d706c656d656e746572000000000000000000000000606482015260840162000307565b6001600160e01b0319811663f23a6e6160e01b14620005b95760405162461bcd60e51b815260206004820152602860248201527f455243313135353a204552433131353552656365697665722072656a656374656044820152676420746f6b656e7360c01b606482015260840162000307565b3b151590565b82805482825590600052602060002090810192821562000853579160200282015b828111156200085357825182546001600160a01b0319166001600160a01b039091161782556020909201916001909101906200081c565b5062000861929150620008e2565b5090565b828054620008739062000c4c565b90600052602060002090601f01602090048101928262000897576000855562000853565b82601f10620008b257805160ff191683800117855562000853565b8280016001018555821562000853579182015b8281111562000853578251825591602001919060010190620008c5565b5b80821115620008615760008155600101620008e3565b634e487b7160e01b600052604160045260246000fd5b601f8201601f191681016001600160401b0381118282101715620009375762000937620008f9565b6040525050565b600082601f8301126200095057600080fd5b815160206001600160401b038211156200096e576200096e620008f9565b8160051b60405162000983838301826200090f565b928352848101820192828101878511156200099d57600080fd5b83870192505b84831015620009d35782516001600160a01b0381168114620009c55760008081fd5b8152918301918301620009a3565b509695505050505050565b60008060008060808587031215620009f557600080fd5b84516020860151604087015191955093506001600160401b038082111562000a1c57600080fd5b62000a2a888389016200093e565b9350606087015191508082111562000a4157600080fd5b5062000a50878288016200093e565b91505092959194509250565b634e487b7160e01b600052603260045260246000fd5b634e487b7160e01b600052601160045260246000fd5b600060001982141562000a9f5762000a9f62000a72565b5060010190565b6000821982111562000abc5762000abc62000a72565b500190565b6000815180845260005b8181101562000ae95760208185018101518683018201520162000acb565b8181111562000afc576000602083870101525b50601f01601f19169290920160200192915050565b6001600160a01b03868116825285166020820152604081018490526060810183905260a06080820181905260009062000b4d9083018462000ac1565b979650505050505050565b60006020828403121562000b6b57600080fd5b81516001600160e01b03198116811462000b8457600080fd5b9392505050565b600060033d111562000ba55760046000803e5060005160e01c5b90565b600060443d101562000bb75790565b6040516003193d81016004833e81513d6001600160401b03808311602484018310171562000be757505050505090565b828501915081518181111562000c005750505050505090565b843d870101602082850101111562000c1b5750505050505090565b62000c2c602082860101876200090f565b509095945050505050565b60208152600062000b84602083018462000ac1565b600181811c9082168062000c6157607f821691505b6020821081141562000c8357634e487b7160e01b600052602260045260246000fd5b50919050565b611ce28062000c996000396000f3fe608060405234801561001057600080fd5b506004361061014c5760003560e01c80638da5cb5b116100c3578063d214326f1161007c578063d214326f146102c5578063e43ebf03146102da578063e985e9c5146102e2578063f242432a1461031e578063f2fde38b14610331578063f6f10c791461034457600080fd5b80638da5cb5b1461025d57806396eb64a91461026e578063a22cb46514610281578063af75231e14610294578063bd85b0391461029c578063cb7381a6146102bc57600080fd5b8063474bb27a11610115578063474bb27a146101d75780634e1273f4146102025780634f558e79146102225780635a360c5614610244578063715018a61461024d5780637284e4161461025557600080fd5b8062fdd58e1461015157806301ffc9a714610177578063023e4bb21461019a5780630e89341c146101a25780632eb2c2d6146101c2575b600080fd5b61016461015f366004611427565b610357565b6040519081526020015b60405180910390f35b61018a610185366004611467565b6103ee565b604051901515815260200161016e565b610164600581565b6101b56101b036600461148b565b610440565b60405161016e91906114f1565b6101d56101d0366004611650565b6104d4565b005b6101ea6101e536600461148b565b61056b565b6040516001600160a01b03909116815260200161016e565b6102156102103660046116fa565b610595565b60405161016e9190611800565b61018a61023036600461148b565b600090815260036020526040902054151590565b61016460075481565b6101d56106bf565b6101b5610725565b6004546001600160a01b03166101ea565b61018a61027c366004611813565b610745565b6101d561028f36600461182e565b61080d565b610164600181565b6101646102aa36600461148b565b60009081526003602052604090205490565b61016460065481565b6102cd6108e4565b60405161016e919061186a565b610164600081565b61018a6102f03660046118b7565b6001600160a01b03918216600090815260016020908152604080832093909416825291909152205460ff1690565b6101d561032c3660046118ea565b610a25565b6101d561033f366004611813565b610aac565b6101ea61035236600461148b565b610b77565b60006001600160a01b0383166103c85760405162461bcd60e51b815260206004820152602b60248201527f455243313135353a2062616c616e636520717565727920666f7220746865207a60448201526a65726f206164647265737360a81b60648201526084015b60405180910390fd5b506000908152602081815260408083206001600160a01b03949094168352929052205490565b60006001600160e01b03198216636cdb3d1360e11b148061041f57506001600160e01b031982166303a24d0760e21b145b8061043a57506301ffc9a760e01b6001600160e01b03198316145b92915050565b60606002805461044f9061194f565b80601f016020809104026020016040519081016040528092919081815260200182805461047b9061194f565b80156104c85780601f1061049d576101008083540402835291602001916104c8565b820191906000526020600020905b8154815290600101906020018083116104ab57829003601f168201915b50505050509050919050565b6001600160a01b0385163314806104f057506104f085336102f0565b6105575760405162461bcd60e51b815260206004820152603260248201527f455243313135353a207472616e736665722063616c6c6572206973206e6f74206044820152711bdddb995c881b9bdc88185c1c1c9bdd995960721b60648201526084016103bf565b6105648585858585610c97565b5050505050565b6009818154811061057b57600080fd5b6000918252602090912001546001600160a01b0316905081565b606081518351146105fa5760405162461bcd60e51b815260206004820152602960248201527f455243313135353a206163636f756e747320616e6420696473206c656e677468604482015268040dad2e6dac2e8c6d60bb1b60648201526084016103bf565b6000835167ffffffffffffffff81111561061657610616611504565b60405190808252806020026020018201604052801561063f578160200160208202803683370190505b50905060005b84518110156106b75761068a8582815181106106635761066361198a565b602002602001015185838151811061067d5761067d61198a565b6020026020010151610357565b82828151811061069c5761069c61198a565b60209081029190910101526106b0816119b6565b9050610645565b509392505050565b6004546001600160a01b031633146107195760405162461bcd60e51b815260206004820181905260248201527f4f776e61626c653a2063616c6c6572206973206e6f7420746865206f776e657260448201526064016103bf565b6107236000610e74565b565b6060604051806060016040528060218152602001611c8c60219139905090565b6000600654431015801561075b57506007544311155b61076457600080fd5b6001610771336001610357565b101561077c57600080fd5b6001610789836000610357565b106107a35761079b8260006001610ec6565b506001919050565b336000908152600560205260408120805460ff16916107c1836119d1565b82546101009290920a60ff818102199093169183160217909155336000908152600560208190526040909120549091161090506108045761080433600180610ec6565b5060005b919050565b336001600160a01b03831614156108785760405162461bcd60e51b815260206004820152602960248201527f455243313135353a2073657474696e6720617070726f76616c20737461747573604482015268103337b91039b2b63360b91b60648201526084016103bf565b3360008181526001602090815260408083206001600160a01b03871680855290835292819020805460ff191686151590811790915590519081529192917f17307eab39ab6107e8899845ad3d59bd9653f200f220920489ca2b5937696c31910160405180910390a35050565b606060075443116109375760405162461bcd60e51b815260206004820152601f60248201527f496e6665637465643a2047616d65206973206e6f7420796574206f766572210060448201526064016103bf565b6000805260036020527f3617319a054d772f909f7c479a2cebe5066e836a939412e32403c99029b92eff54156109c75760088054806020026020016040519081016040528092919081815260200182805480156109bd57602002820191906000526020600020905b81546001600160a01b0316815260019091019060200180831161099f575b5050505050905090565b60098054806020026020016040519081016040528092919081815260200182805480156109bd576020028201919060005260206000209081546001600160a01b0316815260019091019060200180831161099f575050505050905090565b6001600160a01b038516331480610a415750610a4185336102f0565b610a9f5760405162461bcd60e51b815260206004820152602960248201527f455243313135353a2063616c6c6572206973206e6f74206f776e6572206e6f7260448201526808185c1c1c9bdd995960ba1b60648201526084016103bf565b6105648585858585610ef9565b6004546001600160a01b03163314610b065760405162461bcd60e51b815260206004820181905260248201527f4f776e61626c653a2063616c6c6572206973206e6f7420746865206f776e657260448201526064016103bf565b6001600160a01b038116610b6b5760405162461bcd60e51b815260206004820152602660248201527f4f776e61626c653a206e6577206f776e657220697320746865207a65726f206160448201526564647265737360d01b60648201526084016103bf565b610b7481610e74565b50565b6008818154811061057b57600080fd5b6001600160a01b038416610be75760405162461bcd60e51b815260206004820152602160248201527f455243313135353a206d696e7420746f20746865207a65726f206164647265736044820152607360f81b60648201526084016103bf565b33610c0181600087610bf888611016565b61056488611016565b6000848152602081815260408083206001600160a01b038916845290915281208054859290610c319084906119f1565b909155505060408051858152602081018590526001600160a01b0380881692600092918516917fc3d58168c5ae7397731d063d5bbf3d657854427343f4c083240f7aacaa2d0f62910160405180910390a461056481600087878787611061565b3b151590565b8151835114610cf95760405162461bcd60e51b815260206004820152602860248201527f455243313135353a2069647320616e6420616d6f756e7473206c656e677468206044820152670dad2e6dac2e8c6d60c31b60648201526084016103bf565b6001600160a01b038416610d1f5760405162461bcd60e51b81526004016103bf90611a09565b3360005b8451811015610e06576000858281518110610d4057610d4061198a565b602002602001015190506000858381518110610d5e57610d5e61198a565b602090810291909101810151600084815280835260408082206001600160a01b038e168352909352919091205490915081811015610dae5760405162461bcd60e51b81526004016103bf90611a4e565b6000838152602081815260408083206001600160a01b038e8116855292528083208585039055908b16825281208054849290610deb9084906119f1565b9250508190555050505080610dff906119b6565b9050610d23565b50846001600160a01b0316866001600160a01b0316826001600160a01b03167f4a39dc06d4c0dbc64b70af90fd698a233a518aa5d07e595d983b8c0526c8f7fb8787604051610e56929190611a98565b60405180910390a4610e6c8187878787876111cc565b505050505050565b600480546001600160a01b038381166001600160a01b0319831681179093556040519116919082907f8be0079c531659141344cd1fd0a4f28419497f9722a3daafe3b4186f6b6457e090600090a35050565b610ed1838383611296565b60008281526003602052604081208054839290610eef908490611ac6565b9091555050505050565b6001600160a01b038416610f1f5760405162461bcd60e51b81526004016103bf90611a09565b33610f2f818787610bf888611016565b6000848152602081815260408083206001600160a01b038a16845290915290205483811015610f705760405162461bcd60e51b81526004016103bf90611a4e565b6000858152602081815260408083206001600160a01b038b8116855292528083208785039055908816825281208054869290610fad9084906119f1565b909155505060408051868152602081018690526001600160a01b03808916928a821692918616917fc3d58168c5ae7397731d063d5bbf3d657854427343f4c083240f7aacaa2d0f62910160405180910390a461100d828888888888611061565b50505050505050565b604080516001808252818301909252606091600091906020808301908036833701905050905082816000815181106110505761105061198a565b602090810291909101015292915050565b6001600160a01b0384163b15610e6c5760405163f23a6e6160e01b81526001600160a01b0385169063f23a6e61906110a59089908990889088908890600401611add565b602060405180830381600087803b1580156110bf57600080fd5b505af19250505080156110ef575060408051601f3d908101601f191682019092526110ec91810190611b22565b60015b61119c576110fb611b3f565b806308c379a014156111355750611110611b5b565b8061111b5750611137565b8060405162461bcd60e51b81526004016103bf91906114f1565b505b60405162461bcd60e51b815260206004820152603460248201527f455243313135353a207472616e7366657220746f206e6f6e20455243313135356044820152732932b1b2b4bb32b91034b6b83632b6b2b73a32b960611b60648201526084016103bf565b6001600160e01b0319811663f23a6e6160e01b1461100d5760405162461bcd60e51b81526004016103bf90611be5565b6001600160a01b0384163b15610e6c5760405163bc197c8160e01b81526001600160a01b0385169063bc197c81906112109089908990889088908890600401611c2d565b602060405180830381600087803b15801561122a57600080fd5b505af192505050801561125a575060408051601f3d908101601f1916820190925261125791810190611b22565b60015b611266576110fb611b3f565b6001600160e01b0319811663bc197c8160e01b1461100d5760405162461bcd60e51b81526004016103bf90611be5565b6001600160a01b0383166112f85760405162461bcd60e51b815260206004820152602360248201527f455243313135353a206275726e2066726f6d20746865207a65726f206164647260448201526265737360e81b60648201526084016103bf565b336113288185600061130987611016565b61131287611016565b5050604080516020810190915260009052505050565b6000838152602081815260408083206001600160a01b0388168452909152902054828110156113a55760405162461bcd60e51b8152602060048201526024808201527f455243313135353a206275726e20616d6f756e7420657863656564732062616c604482015263616e636560e01b60648201526084016103bf565b6000848152602081815260408083206001600160a01b03898116808652918452828520888703905582518981529384018890529092908616917fc3d58168c5ae7397731d063d5bbf3d657854427343f4c083240f7aacaa2d0f62910160405180910390a45050505050565b80356001600160a01b038116811461080857600080fd5b6000806040838503121561143a57600080fd5b61144383611410565b946020939093013593505050565b6001600160e01b031981168114610b7457600080fd5b60006020828403121561147957600080fd5b813561148481611451565b9392505050565b60006020828403121561149d57600080fd5b5035919050565b6000815180845260005b818110156114ca576020818501810151868301820152016114ae565b818111156114dc576000602083870101525b50601f01601f19169290920160200192915050565b60208152600061148460208301846114a4565b634e487b7160e01b600052604160045260246000fd5b601f8201601f1916810167ffffffffffffffff8111828210171561154057611540611504565b6040525050565b600067ffffffffffffffff82111561156157611561611504565b5060051b60200190565b600082601f83011261157c57600080fd5b8135602061158982611547565b604051611596828261151a565b83815260059390931b85018201928281019150868411156115b657600080fd5b8286015b848110156115d157803583529183019183016115ba565b509695505050505050565b600082601f8301126115ed57600080fd5b813567ffffffffffffffff81111561160757611607611504565b60405161161e601f8301601f19166020018261151a565b81815284602083860101111561163357600080fd5b816020850160208301376000918101602001919091529392505050565b600080600080600060a0868803121561166857600080fd5b61167186611410565b945061167f60208701611410565b9350604086013567ffffffffffffffff8082111561169c57600080fd5b6116a889838a0161156b565b945060608801359150808211156116be57600080fd5b6116ca89838a0161156b565b935060808801359150808211156116e057600080fd5b506116ed888289016115dc565b9150509295509295909350565b6000806040838503121561170d57600080fd5b823567ffffffffffffffff8082111561172557600080fd5b818501915085601f83011261173957600080fd5b8135602061174682611547565b604051611753828261151a565b83815260059390931b850182019282810191508984111561177357600080fd5b948201945b838610156117985761178986611410565b82529482019490820190611778565b965050860135925050808211156117ae57600080fd5b506117bb8582860161156b565b9150509250929050565b600081518084526020808501945080840160005b838110156117f5578151875295820195908201906001016117d9565b509495945050505050565b60208152600061148460208301846117c5565b60006020828403121561182557600080fd5b61148482611410565b6000806040838503121561184157600080fd5b61184a83611410565b91506020830135801515811461185f57600080fd5b809150509250929050565b6020808252825182820181905260009190848201906040850190845b818110156118ab5783516001600160a01b031683529284019291840191600101611886565b50909695505050505050565b600080604083850312156118ca57600080fd5b6118d383611410565b91506118e160208401611410565b90509250929050565b600080600080600060a0868803121561190257600080fd5b61190b86611410565b945061191960208701611410565b93506040860135925060608601359150608086013567ffffffffffffffff81111561194357600080fd5b6116ed888289016115dc565b600181811c9082168061196357607f821691505b6020821081141561198457634e487b7160e01b600052602260045260246000fd5b50919050565b634e487b7160e01b600052603260045260246000fd5b634e487b7160e01b600052601160045260246000fd5b60006000198214156119ca576119ca6119a0565b5060010190565b600060ff821660ff8114156119e8576119e86119a0565b60010192915050565b60008219821115611a0457611a046119a0565b500190565b60208082526025908201527f455243313135353a207472616e7366657220746f20746865207a65726f206164604082015264647265737360d81b606082015260800190565b6020808252602a908201527f455243313135353a20696e73756666696369656e742062616c616e636520666f60408201526939103a3930b739b332b960b11b606082015260800190565b604081526000611aab60408301856117c5565b8281036020840152611abd81856117c5565b95945050505050565b600082821015611ad857611ad86119a0565b500390565b6001600160a01b03868116825285166020820152604081018490526060810183905260a060808201819052600090611b17908301846114a4565b979650505050505050565b600060208284031215611b3457600080fd5b815161148481611451565b600060033d1115611b585760046000803e5060005160e01c5b90565b600060443d1015611b695790565b6040516003193d81016004833e81513d67ffffffffffffffff8160248401118184111715611b9957505050505090565b8285019150815181811115611bb15750505050505090565b843d8701016020828501011115611bcb5750505050505090565b611bda6020828601018761151a565b509095945050505050565b60208082526028908201527f455243313135353a204552433131353552656365697665722072656a656374656040820152676420746f6b656e7360c01b606082015260800190565b6001600160a01b0386811682528516602082015260a060408201819052600090611c59908301866117c5565b8281036060840152611c6b81866117c5565b90508281036080840152611c7f81856114a4565b9897505050505050505056fe496e666563746564544f444f3a2057726974652061206465736372697074696f6ea26469706673582212202f852fd9eadb08b1f584f735384c5a91c1ddf5605315b5c6db5fff5d3780b2a964736f6c63430008090033c3d58168c5ae7397731d063d5bbf3d657854427343f4c083240f7aacaa2d0f62",
  "devdoc": {
    "kind": "dev",
    "methods": {
      "balanceOf(address,uint256)": {
        "details": "See {IERC1155-balanceOf}. Requirements: - `account` cannot be the zero address."
      },
      "balanceOfBatch(address[],uint256[])": {
        "details": "See {IERC1155-balanceOfBatch}. Requirements: - `accounts` and `ids` must have the same length."
      },
      "exists(uint256)": {
        "details": "Indicates weither any token exist with a given id, or not."
      },
      "isApprovedForAll(address,address)": {
        "details": "See {IERC1155-isApprovedForAll}."
      },
      "owner()": {
        "details": "Returns the address of the current owner."
      },
      "renounceOwnership()": {
        "details": "Leaves the contract without owner. It will not be possible to call `onlyOwner` functions anymore. Can only be called by the current owner. NOTE: Renouncing ownership will leave the contract without an owner, thereby removing any functionality that is only available to the owner."
      },
      "safeBatchTransferFrom(address,address,uint256[],uint256[],bytes)": {
        "details": "See {IERC1155-safeBatchTransferFrom}."
      },
      "safeTransferFrom(address,address,uint256,uint256,bytes)": {
        "details": "See {IERC1155-safeTransferFrom}."
      },
      "setApprovalForAll(address,bool)": {
        "details": "See {IERC1155-setApprovalForAll}."
      },
      "supportsInterface(bytes4)": {
        "details": "See {IERC165-supportsInterface}."
      },
      "totalSupply(uint256)": {
        "details": "Total amount of tokens in with a given id."
      },
      "transferOwnership(address)": {
        "details": "Transfers ownership of the contract to a new account (`newOwner`). Can only be called by the current owner."
      },
      "uri(uint256)": {
        "details": "See {IERC1155MetadataURI-uri}. This implementation returns the same URI for *all* token types. It relies on the token type ID substitution mechanism https://eips.ethereum.org/EIPS/eip-1155#metadata[defined in the EIP]. Clients calling this function must replace the `\\{id\\}` substring with the actual token type ID."
      }
    },
    "version": 1
  },
  "userdoc": {
    "kind": "user",
    "methods": {},
    "version": 1
  },
  "storageLayout": {
    "storage": [
      {
        "astId": 129,
        "contract": "contracts/Infected.sol:Infected",
        "label": "_balances",
        "offset": 0,
        "slot": "0",
        "type": "t_mapping(t_uint256,t_mapping(t_address,t_uint256))"
      },
      {
        "astId": 135,
        "contract": "contracts/Infected.sol:Infected",
        "label": "_operatorApprovals",
        "offset": 0,
        "slot": "1",
        "type": "t_mapping(t_address,t_mapping(t_address,t_bool))"
      },
      {
        "astId": 137,
        "contract": "contracts/Infected.sol:Infected",
        "label": "_uri",
        "offset": 0,
        "slot": "2",
        "type": "t_string_storage"
      },
      {
        "astId": 1357,
        "contract": "contracts/Infected.sol:Infected",
        "label": "_totalSupply",
        "offset": 0,
        "slot": "3",
        "type": "t_mapping(t_uint256,t_uint256)"
      },
      {
        "astId": 7,
        "contract": "contracts/Infected.sol:Infected",
        "label": "_owner",
        "offset": 0,
        "slot": "4",
        "type": "t_address"
      },
      {
        "astId": 1932,
        "contract": "contracts/Infected.sol:Infected",
        "label": "failedKillCount",
        "offset": 0,
        "slot": "5",
        "type": "t_mapping(t_address,t_uint8)"
      },
      {
        "astId": 1934,
        "contract": "contracts/Infected.sol:Infected",
        "label": "gameBlockStartTime",
        "offset": 0,
        "slot": "6",
        "type": "t_uint256"
      },
      {
        "astId": 1936,
        "contract": "contracts/Infected.sol:Infected",
        "label": "gameBlockEndTime",
        "offset": 0,
        "slot": "7",
        "type": "t_uint256"
      },
      {
        "astId": 1939,
        "contract": "contracts/Infected.sol:Infected",
        "label": "holyAddresses",
        "offset": 0,
        "slot": "8",
        "type": "t_array(t_address)dyn_storage"
      },
      {
        "astId": 1942,
        "contract": "contracts/Infected.sol:Infected",
        "label": "infectedAddresses",
        "offset": 0,
        "slot": "9",
        "type": "t_array(t_address)dyn_storage"
      }
    ],
    "types": {
      "t_address": {
        "encoding": "inplace",
        "label": "address",
        "numberOfBytes": "20"
      },
      "t_array(t_address)dyn_storage": {
        "base": "t_address",
        "encoding": "dynamic_array",
        "label": "address[]",
        "numberOfBytes": "32"
      },
      "t_bool": {
        "encoding": "inplace",
        "label": "bool",
        "numberOfBytes": "1"
      },
      "t_mapping(t_address,t_bool)": {
        "encoding": "mapping",
        "key": "t_address",
        "label": "mapping(address => bool)",
        "numberOfBytes": "32",
        "value": "t_bool"
      },
      "t_mapping(t_address,t_mapping(t_address,t_bool))": {
        "encoding": "mapping",
        "key": "t_address",
        "label": "mapping(address => mapping(address => bool))",
        "numberOfBytes": "32",
        "value": "t_mapping(t_address,t_bool)"
      },
      "t_mapping(t_address,t_uint256)": {
        "encoding": "mapping",
        "key": "t_address",
        "label": "mapping(address => uint256)",
        "numberOfBytes": "32",
        "value": "t_uint256"
      },
      "t_mapping(t_address,t_uint8)": {
        "encoding": "mapping",
        "key": "t_address",
        "label": "mapping(address => uint8)",
        "numberOfBytes": "32",
        "value": "t_uint8"
      },
      "t_mapping(t_uint256,t_mapping(t_address,t_uint256))": {
        "encoding": "mapping",
        "key": "t_uint256",
        "label": "mapping(uint256 => mapping(address => uint256))",
        "numberOfBytes": "32",
        "value": "t_mapping(t_address,t_uint256)"
      },
      "t_mapping(t_uint256,t_uint256)": {
        "encoding": "mapping",
        "key": "t_uint256",
        "label": "mapping(uint256 => uint256)",
        "numberOfBytes": "32",
        "value": "t_uint256"
      },
      "t_string_storage": {
        "encoding": "bytes",
        "label": "string",
        "numberOfBytes": "32"
      },
      "t_uint256": {
        "encoding": "inplace",
        "label": "uint256",
        "numberOfBytes": "32"
      },
      "t_uint8": {
        "encoding": "inplace",
        "label": "uint8",
        "numberOfBytes": "1"
      }
    }
  }
}